:100000000EC01DC01CC01BC01AC019C018C017C02C
:1000100016C015C014C013C012C01EC010C01124D9
:100020001FBECFE5D2E0DEBFCDBF20E0A0E6B0E04E
:1000300001C01D92AB36B207E1F7CAD0EBC0E0CFEA
:10004000C298C0988093620087B38A7F87BB88EA92
:100050008DB980EF8EB908951F920F920FB60F924F
:1000600011248F931092650010926400B898B29B8F
:1000700002C0B09BFCCFB09902C088EE01C088EBF3
:100080008DB980EF8EB98F910F900FBE0F901F909A
:1000900018951F920F920FB60F9211242F933F9332
:1000A0008F939F93EF93FF938091640090916500ED
:1000B0008230910559F128F4009761F00197A9F178
:1000C0007CC08430910509F44DC048F1059709F4CE
:1000D00052C073C08FB1882359F02FB1269530E0FC
:1000E00080916200992787FD909528173907D1F4F0
:1000F000789B03C081E090E004C01092600084E02F
:1001000090E0909365008093640053C0C09883E0B2
:1001100090E09093650080936400B8984CC08FB1D4
:10012000882319F088EA8DB924C0E0916100E3309A
:1001300054F4EE0FFF0BEA59FF4F0190F081E02DD0
:1001400080818FB901C01FB8809161008F5F80935B
:10015000610082E090E09093650080936400B89A1B
:10016000C09A07C085E090E090936500809364009A
:10017000B89880E721C084E090E090936500809378
:10018000640080916000811107C08FB1809361008D
:1001900081E0809360000DC0E0916100E3304CF499
:1001A000EE0FFF0BEA59FF4F0190F081E02D8FB168
:1001B00080831FB8B89A8EE78EB9FF91EF919F9117
:1001C0008F913F912F910F900FBE0F901F90189518
:1001D000CF93DF9300D0CDB7DEB789E090E09A836C
:1001E0008983CE0101969093670080936600019603
:1001F000909369008093680080E622DFBB9AC39ADF
:1002000080E090E029813A8182179307C0F7C39874
:080210000196F8CFF894FFCF2E
:00000001FF
